S3150800000050080024B103000877180008CD17000827
S31508000010751800083B080008312000080000000099
S31508000020000000000000000000000000DD1C0008C1
S315080000303D08000800000000A31A0008E11C00089B
S31508000040D3030008D3030008D3030008D30300082A
S31508000050D3030008D3030008D3030008D30300081A
S31508000060D3030008D3030008D3030008D30300080A
S31508000070D3030008D3030008D3030008D3030008FA
S31508000080D3030008D3030008D3030008D3030008EA
S31508000090D3030008D3030008D3030008D3030008DA
S315080000A0D3030008D3030008D3030008D3030008CA
S315080000B0D3030008D3030008D3030008D3030008BA
S315080000C0D3030008D3030008D3030008D3030008AA
S315080000D0D3030008D3030008D3030008D30300089A
S315080000E0D3030008D303000800000000D303000868
S315080000F0D3030008D3030008D3030008D30300087A
S31508000100D3030008D3030008D3030008D303000869
S31508000110D3030008D3030008D3030008D303000859
S31508000120D3030008D3030008D3030008D303000849
S31508000130D3030008D3030008D3030008D303000839
S3150800014000000000000000000000000000000000A1
S31508000150D3030008D3030008D3030008D303000819
S31508000160D3030008D3030008D3030008D303000809
S31508000170D3030008D3030008D303000800000000D7
S31508000180D3030008D3030008D3030008D3030008E9
S31508000190D3030008D3030008D3030008D3030008D9
S315080001A0D1170008D3030008D3030008D3030008B7
S315080001B0D3030008D3030008D3030008D3030008B9
S315080001C0D3030008D3030008D3030008D3030008A9
S315080001D0D3030008D3030008D3030008D303000899
S315080001E0D3030008D3030008D3030008D303000889
S315080001F0D3030008D3030008D3030008D303000879
S31508000200D3030008D3030008D3030008D303000868
S31508000210D3030008D3030008D3030008D303000858
S31508000220D3030008D3030008D30300080000000026
S31508000230D3030008D303000800000000D303000816
S31508000240D3030008D3030008D3030008D303000828
S31508000250D3030008D3030008D3030008D303000818
S31508000260D3030008D3030008D3030008D303000808
S31508000270D3030008D3030008D303000800000000D6
S31508000280D3030008D3030008D303000800000000C6
S3150800029000000000D303000800F002F800F078F828
S315080002A014A696E8000CB244B344DA4501D100F02E
S315080002B06FF8BAE80F000FA696E83000A5EB04051C
S315080002C004EB0607AAEB0704A7F101074FEA151581
S315080002D04FEA3414A4F10104AC4201D300F058F8F3
S315080002E013F0010F18BFFB1A43F0010300F001F8E1
S315080002F0DBE71847B42E0000E42E00000A4410F885
S31508000300014B14F00F0508BF10F8015B240908BF5C
S3150800031010F8014B6D1E05D010F8013B6D1E01F853
S31508000320013BF9D1641E03D0641E01F8015BFBD1C1
S315080003309142E4D370470000103A24BF78C878C1C8
S31508000340FAD8520724BF30C830C144BF04680C60CD
S31508000350704700007047000000230024002500268F
S31508000360103A28BF78C1FBD8520728BF30C148BF0A
S315080003700B607047642900F08580782900F0BE80FC
S31508000380002070471FB502F0CBFE1FBD10B510BD8B
S3150800039000F086F91146FFF7F5FF01F063FE00F05D
S315080003A0A4F903B4FFF7F2FF03BCAFF30080000023
S315080003B00B4880470B4880470B4880470B48004747
S315080003C0FEE7FEE7FEE7FEE7FEE7FEE7FEE7FEE7F7
S315080003D0FEE7FEE706480749074A084B704700004C
S315080003E049080008F11C0008C11D00089902000808
S315080003F0500200245008002450040024500400240D
S31508000400704700000FB4044910B503AA029800F01B
S3150800041015F910BC5DF814FBBC0000242DE9F04169
S315080004200E460446002020622046E168884730B31D
S31508000430252805D0D4E901219047206A401CF2E717
S31508000440E168204600278847050018D0A5F1410035
S31508000450192802D820354FF4006732462946204627
S315080004602760FFF787FF40B1012804D0F61D26F064
S3150800047007060836D8E7361DD6E72846DAE7206A9B
S31508000480BDE8F0812DE9F04106460024106875297B
S31508000490314616A510D0AFF30080002802DA404294
S315080004A013A507E031688A0701D512A502E04907B6
S315080004B004D511A5012401E0AFF3008000210A222A
S315080004C006F1240709E0B0FBF2FCB0FBF2F302FBED
S315080004D01C00303078541846491C0028F3D12346AE
S315080004E02A463046BDE8F04100F04EB8000000004C
S315080004F02D0000002B0000002000000070B5044607
S315080005000D4621461068AFF300802188090502D5FB
S315080005100F4A7A4402E00E4A7A440E32002104F168
S31508000520240305E000F00F060009965D5E54491C99
S315080005300028F7D120780023000704D5702D02D0B3
S3150800054009B1022311322046BDE8704000F01CB8FC
S31508000550242C000010B5044603E001F06BFD401C96
S3150800056009D014F8010B05490028F6D1BDE810405A
S315080005700A2001F05FBD4FF0FF3010BDBC0000241B
S3150800058070477047704770472DE9F0470D46994602
S315080005909246044600F124080168880604D5E069F5
S315080005A021F01001216000E00120A84201DD471B6F
S315080005B000E00027A1697A1902EB0900081AA06170
S315080005C02078C00602D42046AFF30080002608E053
S315080005D0D4E901211AF806009047206A401C761CC7
S315080005E020624E45F4DB2078C0060AD52046AFF3D4
S315080005F0008006E0D4E9012130209047206A401C9B
S315080006002062381EA7F10107F4DC07E0D4E90121CE
S3150800061018F805009047206A401C2062281EA5F19C
S315080006200105F3DC2046AFF300802078000602D5EA
S315080006300220BDE8F0870120FBE70000074B70B5F4
S315080006400D467B4400F011F80446284600F020F8D1
S3150800065010B14FF0FF3070BD204670BDEF19000095
S3150800066001694A1C02610878704700B58FB0CDE968
S3150800067001310021059105497944CDE90310114658
S315080006806846FFF7CBFE0FB000BD0000E5FFFFFF91
S31508000690007B00F08000704700487047080000247F
S315080006A07546FFF7F9FFAE4605006946534620F042
S315080006B00700854618B020B5FFF78CFEBDE8204038
S315080006C04FF000064FF000074FF000084FF0000B00
S315080006D0AC46ACE8C009ACE8C009ACE8C009ACE86F
S315080006E0C00921F007018D46704710B50446AFF3DF
S315080006F000802046BDE81040FFF753BE53EA020CBF
S3150800070000F069802DE9F04B4FF00006002B1FBF63
S31508000710B3FA83F503FA05F424FA05F65E4012BF28
S315080007201643B2FA82F502FA05F4C5F120051EBF92
S3150800073022FA05FC44EA0C04203556EA044C4FEA32
S31508000740144418BF641C4FF000084FF0000990428B
S3150800075071EB030C39D3002919BFB1FA81F701FAF5
S3150800076007F6B0FA80F700FA07F6C7F120071EBFAA
S3150800077020FA07FC46EA0C062037B6FBF4FCA7EB82
S315080007800507103F07F01F0BCBF120062CFA06F6DB
S315080007900CFA0BFB44BFB3460026202FA4BF5E46C7
S315080007A04FF0000B5BEA060C08BF4FF0010B19EB84
S315080007B00B0948EB0608ABFB027C06FB02CC0BFBDD
S315080007C003CCC01B71EB0C01C1E70B460246414640
S315080007D04846BDE8F08B13B5084318BF4FF0FF3005
S315080007E00146AFF30080BDE81C4070474FF0000299
S315080007F000B5134694469646203922BFA0E80C5009
S31508000800A0E80C50B1F12001BFF4F7AF090728BFE3
S31508000810A0E80C5048BF0CC05DF804EB890028BF5F
S3150800082040F8042B08BF704748BF20F8022B11F088
S31508000830804F18BF00F8012B7047FEE77047EFF3AB
S31508000840108072B6FEE700000448816841F0020194
S31508000850816001688904FCD5704700BF04480258C6
S315080008607A4801690269521A652AFBD3704700BFA4
S315080008702DE9FC4F5B4A0A244FF0000B4FF0010AA2
S315080008809042594A08BF09240244830543EA922242
S31508000890092A38BF14460094002700220E6836FA43
S315080008A002F500F09D800AFA02F916EA090E00F030
S315080008B092800323D1F804C003FA0BF50CF0030861
S315080008C0EB43A8F10105012D12D88568D1F80CA0D3
S315080008D00AFA0BF41D404FF0010A2C438460CCF34E
S315080008E000144568944025EA09052C43446005E050
S315080008F0B8F1030F02D14FF0030822E0C4688D68EF
S315080009001C4005FA0BF52C43C460B8F1020F18D148
S3150800091007F01C040F253E4605FA04FC6FF0030594
S3150800092005EA520505442F6A27EA0C0C0F6907FAEF
S3150800093004F4374644EA0C042C62D1F804C00CF0DF
S315080009400308056808FA0BF41D402C4304601CF4E0
S31508000950403F40D0264BBC46264E1C6844F0020455
S315080009601C601C680F2304F00204019407F00C04B1
S31508000970019F22F0030703FA04F5BB59AB43009D18
S3150800098005FA04F42343BB514FF0B04633684D686B
S3150800099043EA0E04EF0258BF23EA0E043460134EEE
S315080009A0AF02336843EA0E0458BF23EA0E043460E4
S315080009B0AF03D6F88030674643EA0E0458BF23EAE9
S315080009C00E04C6F88040ED03F36F43EA0E0458BFE1
S315080009D023EA0E04F4670BF1020B043701325DE7D4
S315080009E0BDE8FC8F002402580000FEA7040000584A
S315080009F0F44402580804005810B511494FF47A72A5
S31508000A000968B1FBF2F14A1E0021B1EB126F13D14E
S31508000A100C4BF0245A600C4A147099600721012483
S31508000A2019600F2809D84FF0FF300F2100F038F869
S31508000A3006480471002400E00124204610BD00BFCA
S31508000A400000002410E000E023ED00E06800002428
S31508000A5010B51249437802780B608B6823F00103BE
S31508000A608B6043684B60C47A037B240644EA0373AD
S31508000A70847A43EAC443447B43EA8443847B43EA57
S31508000A804443C47B43EA0443447A007A43EA042392
S31508000A9043EA40001043886010BD00BF98ED00E0AF
S31508000AA010B5104A00F00F030F4C043B02442344D0
S31508000AB0002848BF03F10C0220684FF0FF34C0F34A
S31508000AC00220C31E80F0070038BF0023042828BF71
S31508000AD0042004FA00F021EA000098400001107092
S31508000AE010BD00BF00E400E00CED00E0B0B51B4906
S31508000AF08B6A8A6ACC6ACD6BC2F30532AAB1E40660
S31508000B0000F0E3FE15D0BBB90B689B0651BF9FEDFD
S31508000B10161A0B68C3F3C103144C42BF24FA03F335
S31508000B2001EE103AB8EE411A08E00021C0E90011BA
S31508000B3012E09FED0C1A01E09FED091A8B6B9FEDF1
S31508000B400C3A00F0B5FE8A6B00F071FF8A6B00F074
S31508000B50A0FE896B00F096FF8160B0BD0044025884
S31508000B600024744A20BCBE4B0024744C0090D00369
S31508000B7000000039B0B51B498B6A8A6ACC6A4D6C8D
S31508000B80C2F30552AAB1E40500F09FFE15D0BBB921
S31508000B900B689B0651BF9FED161A0B68C3F3C1037A
S31508000BA0144C42BF24FA03F301EE103AB8EE411A88
S31508000BB008E00021C0E9001112E09FED0C1A01E0DF
S31508000BC09FED091A0B6C9FED0C3A00F071FE0A6C4A
S31508000BD000F02DFF0A6C00F05CFE096C00F052FF75
S31508000BE08160B0BD004402580024744A20BCBE4B44
S31508000BF00024744C0090D003000000392DE9F84316
S31508000C000446C078A74F00071CD5A06E4FEA30519E
S31508000C10032908D8DFE801F002090C11F96941F443
S31508000C200031F96109E001260DE000F026FF01E038
S31508000C3000F089FE064630B9A06E396C21F44011E1
S31508000C400843386400266078B946C00701D135469E
S31508000C5020E0A06D04280ED83546DFE800F0030F23
S31508000C6009121200F869354640F40030F86108E0C8
S31508000C7000F0FEFE04E0012501270CE000F0FCFD73
S31508000C8005462F463DB9A06D00F04FFE21F007013D
S31508000C9000F0BAFE3746607880071ED5E06D4FEA49
S31508000CA0B01004280AD8DFE800F0030C060F0F007E
S31508000CB000F0E7FD08E000F0DBFE04E00125012670
S31508000CC00CE000F0D9FD05462E463DB9E06D00F072
S31508000CD02CFE21F4E07100F097FE3E46607840074E
S31508000CE002D4B0464F4623E0D4F8A8004F464FEA50
S31508000CF0705004280AD8DFE800F0030D061010002B
S31508000D0000F086FE09E000F0B3FE05E001254FF08D
S31508000D1001080DE000F0B0FD0546A84645B9D4F82F
S31508000D20A800B96C0025B04621F460010843B864F0
S31508000D306078000720D5D4F8AC004FEA3060042864
S31508000D400AD8DFE800F0030C060F0F0000F060FE7B
S31508000D5008E000F08DFE04E0012501270DE000F013
S31508000D608BFD05462F4645B9D4F8AC0000F0D8FDF2
S31508000D7021F0E06100F02CFE4746E07880071DD59B
S31508000D80E06C4FEA3010032806D8DFE800F00B02C3
S31508000D90080B00F076FD05E0012501260FE000F0BE
S31508000DA06CFE05462E4655B9E06CD9F83C10002570
S31508000DB04A4621F030010843C9F83C003E466078AF
S31508000DC0C0061ED5206E4FEA303004280AD8DFE860
S31508000DD000F0030C060F0F0000F053FD08E000F0CA
S31508000DE047FE04E0012501270CE000F045FD054615
S31508000DF02F463DB9206E00F098FD21F4E04100F041
S31508000E0003FE3746607880061BD5606E4FEA304091
S31508000E10052807D8DFE800F00C03090C0C0C00F0D5
S31508000E2022FE04E0012501260CE000F017FE054627
S31508000E302E463DB9606E00F078FD21F4E02100F001
S31508000E40E3FD3E46607840061DD5D4F8B0004FEA6B
S31508000E503070052807D8DFE800F00C03090C0C0CE5
S31508000E6000F001FE04E0012501270DE000F0F6FD83
S31508000E7005462F4645B9D4F8B00000F051FD21F0DB
S31508000E80E04100F0A5FD37466078000618D5206FCA
S31508000E9068B1B0F1005F07D0B0F1805F22D100F0F1
S31508000EA0F0FC04E01044025800F0DDFD05462E462D
S31508000EB03DB9206F00F039FD21F0405100F0A4FD46
S31508000EC03E46E078C00702D131464F461DE0A06C89
S31508000ED04F46032809D8DFE800F00E020B0E00F093
S31508000EE097FD08E001250126EBE7012501210CE025
S31508000EF000F0C3FD054629463DB9A06CF96B0025EF
S31508000F0021F0030108433146F8632068420201D400
S31508000F100E4615E0D7F8F02342F48072C7F8F0239E
S31508000F20DFF8C82D1369D7F8F063F60506D41669F5
S31508000F30F61A642EF7D90325032601E02E4675B165
S31508000F40C00764D0E06F4FEAF000052850D8DFE804
S31508000F5000F055035255555500F085FD4DE0D9F87A
S31508000F606030D4F8B4C083EA0C0313F4407F12D07F
S31508000F70D9F86030D9F860504E4645F48035C9F83E
S31508000F80605023F44073D9F8605025F48035C9F8C9
S31508000F906050C9F86030BCF5807F0FD1176941F2FF
S31508000FA088334D46D9F86050AD0707D41569EE1B4E
S31508000FB003259E424FF00306F3D9C1E7D9F800305E
S31508000FC0AD4A0CF440754E4623F47C5302EA1C12D3
S31508000FD0B5F5407F6FF31F3C08BF1343C9F80030CF
S31508000FE00025D9F8602042EA0C02C9F860208FE78C
S31508000FF0012501270CE000F031FD05462F463DB9D5
S31508001000E06F00F0B8FC21F0380100F0E5FC374647
S315080010102078800719D5A06F052807D8DFE800F0E3
S315080010200C03090C0C0C00F01EFD04E0012501263A
S315080010300CE000F013FD05462E463DB9A06F00F002
S315080010409AFC21F0070100F0C7FC3E4620784007CD
S315080010501DD5D4F89400052808D84F46DFE800F0D7
S315080010600D030A0D0D0D00F0FEFC05E001254FF0FD
S3150800107001080DE000F0F2FC0546A84645B9D4F88B
S315080010809400B96C002521F007010843B864B046FE
S31508001090207880061DD5D4F890004FEA30700528D0
S315080010A007D8DFE800F00C03090C0C0C00F0E4FB91
S315080010B004E0012501270DE000F045FC05462F4612
S315080010C045B9D4F8900000F056FC21F0E04100F054
S315080010D083FC4746207840061DD5D4F89C004FEA85
S315080010E0B020052807D8DFE800F00C03090C0C0C23
S315080010F000F0C2FB04E0012501260DE000F023FC08
S3150800110005462E4645B9D4F89C0000F009FC21F4A2
S31508001110E05100F05DFC3E46207800061DD5D4F867
S31508001120A0004FEA7030052807D8DFE800F00C0366
S31508001130090C0C0C00F0A0FB04E0012501270DE0CA
S3150800114000F001FC05462F4645B9D4F8A00000F08A
S31508001150E7FB21F4604100F03BFC374620680107B5
S3150800116013D5D4F88400B0F5805F06D100F0EBFB08
S31508001170002818BF0127D4F88400D9F844104A4635
S3150800118021F4405100F028FC2068C10613D5D4F894
S315080011909800B0F5807F06D100F0D5FB002818BF6F
S315080011A00127D4F89800D9F848104A4621F4407126
S315080011B000F00EFC206800031AD5D4F8A400B0F598
S315080011C0003F0BD0B0F5803F05D0002840F0F480F2
S315080011D000F052FB01E000F0B6FB05462E4645B985
S315080011E0D4F8A40000F09CFB21F4403100F0F0FB99
S315080011F03E46A07840071BD5D4F88800B0F5401FB6
S315080012000CD0B0F5001F06D0B0F5801F40F0D7808F
S3150800121000F037FB02E000F021FC05462F4645B9F1
S31508001220D4F8880000F0A7FB21F4401100F0D4FBA5
S315080012303746A078C00716D0206DB0F5803F03D09A
S3150800124098B900F01EFB02E000F017FC05462E4692
S315080012506DB9206DD9F83C1000254A4621F4803135
S315080012600843C9F83C003E4601E0012501262168ED
S31508001270880003D4606808E0CFFFFF0000F063FB36
S31508001280002818BF0126D4E900108A031BD5D4F814
S3150800129080206FF0010303EB3223022B0BD34FEAB6
S315080012A0322343B1012B40F08D80D9F81C3043F42A
S315080012B00033C9F81C303DB9D9F8443023F44073DB
S315080012C01A43C9F844203546CA0207D5626FD9F8C9
S315080012D0403023F000431A43C9F84020CA0008D515
S315080012E0D4F8B820D9F8003023F480431A43C9F853
S315080012F000208A0207D5E26ED9F8403023F08073C1
S315080013001A43C9F840204A000CD5D9F8002022F41F
S315080013100042C9F80020D4F8BC20D9F800301A4396
S31508001320C9F80020CA0F07D0626DD9F83C3023F0FF
S3150800133040531A43C9F83C20090208D5D4F88C1042
S31508001340D9F8442022F440021143C9F84410C107D1
S3150800135005D000F091FA002818BF05466068810795
S3150800136005D500F080FB002818BF054660684107D0
S3150800137005D500F082FB002818BF054660680107FE
S3150800138005D500F075FB002818BF05466068C1063C
S3150800139005D500F063FB002818BF0546606880067F
S315080013A004D500F0D0FA002818BF0125002D18BF73
S315080013B001252846BDE8F8830125012619E70125F8
S315080013C0012736E701257FE780B500F02FF80949A0
S315080013D0154B0A68C2F303229A5C096801F00F01EB
S315080013E002F01F02595CD040034A01F01F01106049
S315080013F0C84080BD184402580000002480B5FFF795
S31508001400E3FF0849084A0968C1F3021100F005BB61
S3150800141080B5FFF7D9FF0349034A0968C1F30221DA
S3150800142000F0FBBA1C4402588631000810B535494D
S315080014300869C0F3C20003280FD0022804BF334846
S3150800144010BD40B90868800634485AD50968C1F302
S31508001450C101C84010BD2C4810BD8A6A886ACC6A8A
S315080014604B6BC0F3051000B304F0010402F003024D
S31508001470644204EAD303022A6FF35F3300EE103A9C
S31508001480B8EE400A13D0AAB90A68920651BF9FED72
S31508001490221A0A68C2F3C102204B42BF23FA02F29B
S315080014A001EE102AB8EE411A06E0002010BD9FEDA5
S315080014B0191A01E09FED161A0A6B9FED193A6FF398
S315080014C05F2202EE102AB8EE422A00EE032AB7EE91
S315080014D0000A32EE000A02EE100A086BC0F3462034
S315080014E0B8EE422A013081EE021A21EE000A01EE18
S315080014F0100AB8EE411A80EE010ABCEEC00A10EED8
S31508001500100A10BD0044025800093D0040787D01CC
S315080015100024744A20BCBE4B0024744C0090D003AF
S31508001520000000392DE9F04FB7B0DFF82CAB0446C0
S315080015309AF84C00002879D19AF8000000258AF814
S315080015404D50002872D101208AF8000002AEA02171
S3150800155006F12000FFF74AF94FF0807002900395D4
S31508001560022514958020CDE908500420CDE90650BF
S3150800157060200590052004903046FFF73FFB0028C1
S3150800158040F0EB8076480027DFF8A8B94FF003094A
S31508001590016841F4805101600068724900F4805086
S315080015A00190CDE9335788460C20369003203590B4
S315080015B04FF63F003290019832AE01F50060314691
S315080015C0D8470C203690314633A880E8A0022C2054
S315080015D0329008F58050D8470320359031464FF0B1
S315080015E00C09CDF8D890CDE9335748F23710329028
S315080015F008F54060D847032035903146CDF8D89095
S315080016004FF00C09CDE933574FF68370329008F541
S315080016108060D847032035903146CDF8D890CDE97B
S3150800162033574CF2037032904046D84702208AF866
S315080016304C00DAE90802002A016844D00AF140059C
S3150800164021F4F8410AF128066FF00F072CCD114353
S3150800165047F6FF72194329430160416891436CCEEE
S315080016601143DAF8382019432943404D31431143D1
S31508001670DAF83C20114341603B4A816863691140AE
S31508001680E26805EB02321143394A02EB0352114371
S315080016908160C16894E82C00266901F07041013A1E
S315080016A007EB031311436FF0FF02194302EB052200
S315080016B01143304A02EB06421143A269013A41EA54
S315080016C00261C1603EE00AF1280647F6FF72DAE9D0
S315080016D0108921EA020CDAE90E1E6CCE42EA0C02E7
S315080016E01A432A4332436FF00F061143DAF84820AB
S315080016F041EA0E0141EA080141EA09011143016084
S31508001700816894E82C1001F07041013A06EB031346
S3150800171011436FF0FF02194302EB0522154B1143E3
S31508001720124A02EB0C321143226903EB0242104BB8
S315080017301143626903EB02521143A269013A41EA75
S31508001740026181600C48016841F000410160012096
S315080017508AF84C0037B0BDE8F08FFFF770F800BF85
S31508001760D4440258000C0258FF0F0FFF00F0FFFF89
S315080017700000F0FF0000FFFF00400052124890F8FA
S315080017804C1041F0040105291DD170B500F114046F
S31508001790022180F84C106FF01F051ECC05EB421293
S315080017A0057A26696FF3150665F30416324342EA8D
S315080017B043220A4322610122022908BF052280F832
S315080017C04C20BDE87040704768000024FEE7000022
S315080017D0B0B5274801688B6B4A6B5C0712D554076E
S315080017E010D54C6B24F004044C630424CC63D0F865
S315080017F0A45045F00105C0F8A450002580F8A05073
S3150800180080F8A1409C0713D5940711D54C6B24F09A
S3150800181002044C630224CC63D0F8A44044F00204CA
S31508001820C0F8A440002480F8A040042480F8A14011
S31508001830DC070CD0D4070AD04C6B002524F0010431
S315080018404C630124CC6380F8A05080F8A1401B07A4
S315080018500DD512070BD54A6B22F008024A630822F7
S31508001860CA63002180F8A010012180F8A110B0BD3C
S3150800187010010024FEE7FEE704F10800002100F04D
S3150800188011B9D9F81C00494640F40030C9F81C00C3
S315080018907047C2F3064202EE102AB8EE422A32EE2A
S315080018A0002A81EE022ABCEEC22A80ED012A704780
S315080018B06FF35F2302EE103AB8EE422A00EE032ACF
S315080018C003EE102AB7EE000A7047ED0803F003038B
S315080018D005EAE474022B6FF35F3400EE104AB8EEA3
S315080018E0400A70473B903B98D4F8E00070473B901D
S315080018F03B98D4F8E00040F00100C4F8E000D4F8C2
S31508001900E00000F001007047CAF8888006680168A0
S3150800191021F00101016001218AF88410816870476D
S31508001920D9F8481000254A467047D9F840100025CE
S315080019304A46704709900998D4F8E00070478DF830
S3150800194029002046304704F12800022100F014B986
S3150800195005F4FE052C44056906EB056505F0FE450C
S315080019602C447047A169A269C1F30321695C01F09F
S315080019701F01C8407047D9F8441000254A467047E9
S3150800198040F04000C4F8E000D4F8E00000F0400061
S31508001990704740F08000C4F8E000D4F8E00000F09A
S315080019A08000704740F02000C4F8E000D4F8E0005A
S315080019B000F02000704740F48070C4F8E000D4F8C6
S315080019C0E00000F480707047019101990168704742
S315080019D00843C9F8480070470843C9F844007047E7
S315080019E04DF808EDFEF73CFF0020B867BFF34F8FB0
S315080019F07B6FDA08C3F34E31C3F3C9039207480174
S31508001A0001335DF808EB70470843C9F84000704792
S31508001A10F86940F40030F8617047515C01F01F0125
S31508001A20C84080BDC4F8E000D4F8E0007047C2F3AF
S31508001A304622B8EE433A32EE002A81EE031A21EE28
S31508001A40021A02EE102AB8EE422A32EE002A81EE77
S31508001A50022ABCEEC22A80ED002A704704F128004B
S31508001A60012100F089B804F10800012100F01AB834
S31508001A7004F12800002100F07FB804F108000221D3
S31508001A8000F010B8C1F3066102EE101AB8EE422A49
S31508001A9032EE000A81EE000ABCEEC00A10EE101AF9
S31508001AA070477047F0B5BE4A936A03F00303032BE9
S31508001AB004BF0120F0BD136823F0806313608B4BCD
S31508001AC01C6915682D0104D51D692D1B022DF8D931
S31508001AD04EE090E87010976A27F47C37013D47EA94
S31508001AE0043494626FF35F254FF47E4404EB462476
S31508001AF04FF0FE46A4B22C444FF4FE0505EB0C4508
S31508001B00FFF726FF94634469D56A25F0C0052C4380
S31508001B10D4628469D56A25F020052C43D4624FF631
S31508001B20F875D46A24F01004D462D46BC069AC4347
S31508001B3044EAC000D0630129D06A40F01000D062A0
S31508001B404FF4001008BF4FF48010002908BF4FF467
S31508001B500020D16A0843D062106840F080601060A7
S31508001B6018691168090105D41969091A0329F8D3EE
S31508001B700320F0BD0020F0BDF0B5894A936A03F052
S31508001B800303032B04BF0120F0BD136823F0805321
S31508001B901360E94B1C691568AD0004D51D692D1B3A
S31508001BA0022DF8D94EE090E87010976A27F07C77F6
S31508001BB0013D47EA045494626FF35F254FF47E446F
S31508001BC004EB46244FF0FE46A4B22C444FF4FE051F
S31508001BD005EB0C45FFF7BCFE14644469D56A25F489
S31508001BE040652C43D4628469D56A25F400752C4374
S31508001BF0D4624FF6F875D46A24F48074D462546CAF
S31508001C00C069AC4344EAC00050640129D06A40F474
S31508001C108070D0624FF0807008BF4FF40000002932
S31508001C2008BF4FF48000D16A0843D062106840F0BC
S31508001C308050106018691168890005D41969091A55
S31508001C400329F8D30320F0BD0020F0BDFEB5F64CFD
S31508001C5001200025C4E90500E56120720295FFF719
S31508001C608DFD42F20F7001950199814203D80199C1
S31508001C7001310191F8E7184F002501260220267246
S31508001C80C4E90506E561B847082003212672C4E9B8
S31508001C900510E561B847267240F231210291042009
S31508001CA00299C4E90506E161B84794F84C00022890
S31508001CB010D094F84C0001280CD1022084F84C006E
S31508001CC040F29632206A416962F34D014161012072
S31508001CD084F84C00FEBD00BF7D1700087047000061
S31508001CE0DD48016901310161704700BF68000024C1
S31508001CF029482A4A016841F470010160106800F019
S31508001D000F00062804D81068072161F30300106045
S31508001D1010B52348234C016841F0010101600021F8
S31508001D20016103682340036013681B0704D5136821
S31508001D30072464F3030313601B4A8161C1610162CE
S31508001D4082621A4AC2621A4A026341638263C163A3
S31508001D5002644164026822F4802202600166154A20
S31508001D601268B1EB527F02D1134901220A60D0F8FA
S31508001D70D410C9040FD4D0F8D41043F2D20241F4D7
S31508001D808051C0F8D4100D490A60D0F8D41021F457
S31508001D908051C0F8D41010BD88ED00E00020005234
S31508001DA0004402587FEDF6EA000202020000FF0135
S31508001DB0800201010010005C0881005100400052B9
S31508001DC02DE9F04F8DB00DF118081C214046FEF79D
S31508001DD00DFD56484FF00009CDF800904FF00C0A5B
S31508001DE04FF0030B0224524D524F50F80C1C41F48D
S31508001DF0805140F80C1C50F80C1C01F48051FFF778
S31508001E00E3FD41F020010160016801F02001FFF7C0
S31508001E10DBFD41F080010160016801F08001FFF7F8
S31508001E20D3FD41F040010160016801F04001FFF770
S31508001E30CBFD41F010010160016801F01001FFF7C8
S31508001E40C3FD41F002010160016801F00201FFF7DC
S31508001E50BBFD41F008010160006800F00800019030
S31508001E600198CDF814A0CDE9039B02944FF63F00E4
S31508001E70019001AE05F500603146B847CDF814A0CB
S31508001E8002A8314680E8100A2C20019005F58050FA
S31508001E90B847CDF814A002A8314680E8100A48F2DF
S31508001EA03710019005F54060B847CDF814A002A890
S31508001EB0314680E8100A4FF68370019005F5806078
S31508001EC0B847CDF814A002A8314680E8100A4CF2AB
S31508001ED0037001902846B8475F484FF400514FF405
S31508001EE080524FF4006308250126144FCDE90B44B0
S31508001EF0CDE90645C0E9103281644FF4C07140222D
S31508001F001023C0E90879C0E90A65C0E90C32C0E9BE
S31508001F100E1904200A900620CDE908004046FFF76E
S31508001F2001FB0DB0BDE8F04FFFF790BEE044025844
S31508001F30000C02587108000868000024404100524D
S31508001F404648416EA9B1B0B502680D4B0D4D916872
S31508001F50C1F342615C5C695C9268520F09019B5C43
S31508001F60AA5CB1FBF4F11201B2FBF3F2BDE8B04092
S31508001F7001E001220121A0F86810A0F86A20704744
S31508001F809E3100089631000870B50368324C00256A
S31508001F90DE690E408E4212D02669B61AB5EB566F28
S31508001FA00FD11E687607F3D5DE6936070BD4DE69CE
S31508001FB03605EDD5032120224FF4006406E0002102
S31508001FC030E003212EE00121082408221C62036860
S31508001FD053E8003F046823F4907344E80035002D65
S31508001FE0F5D1124B046854E8024F05681C4045E8D1
S31508001FF00246002EF6D1C36E012B09D1036853E8B9
S31508002000003F046823F0100344E80035002DF5D19D
S315080020102023C0F88C300023C366436780F88430D9
S31508002020C0F89020084670BD68000024FEFFFFEF48
S31508002030FEE700000849C96819B1084A914203D069
S3150800204070474FF0FF30704705490A685206FCD5BD
S31508002050C2B2CA60704700BF68000024B8010024F5
S315080020601C100140C0B001250A95D94F4FF0000851
S31508002070D84EBFF35F8FB86920F48030B861C7F8CF
S315080020808880D5480D90D5480C904FF000500B909D
S315080020900AAC2046B04712208DF830008DF83780FC
S315080020A08DF835508DF829504FF010500B9020467A
S315080020B0B0474FF040500B908DF837508DF835806B
S315080020C00220FFF73CFC0F208DF830004FF06050DF
S315080020D00B900320FFF733FC4FF0C0400B904FF0F6
S315080020E01B09ADF836808DF830900420FFF727FCE1
S315080020F040F20110ADF8360005258DF82950182054
S315080021008DF830004FF040400B902046B0474FF016
S3150800211000400B90ADF836808DF830900620FFF71A
S315080021200EFCC7F88850B86940F48030B861BFF330
S315080021304F8FBFF36F8FB868800311D4BFF34F8FEB
S31508002140BFF36F8FC7F84482BFF34F8FBFF36F8F0C
S31508002150B86840F40030B860BFF34F8FBFF36F8F95
S31508002160B868C00327D40020B86743F6E074BFF305
S315080021704F8F7B6FDA08C3F34E31C3F3C903920757
S315080021804801013300EA04051E461544C7F85452AF
S3150800219005F14045013EF9D120384D1E0029294652
S315080021A0F0D1BFF34F8FB86840F48030B860BFF302
S315080021B04F8FBFF36F8F38684FF6FF010840884985
S315080021C008433860FFF732F9864CDFF8505EDFF8CF
S315080021D0506EFFF7C7FB30600F20FEF70DFC58B9AD
S315080021E0D4F8F40040F00200C4F8F400D4F8F4007F
S315080021F000F002000A900A987B48026801685207B4
S315080022000FD5022262F302010160DFF8741E0A6923
S3150800221050F8083C9B0404D40B699B1AB3F57A7FE3
S31508002220F6D900210A91C16841F44041C160C168EC
S3150800223001F440410A916D490A6842F001020A60B8
S31508002240096801F001010A910A99C1688904FCD557
S31508002250206900F03801A06A102907D0182940F033
S31508002260988000F00300022840F0938020682069D7
S3150800227000F03800182840F09C80A06A40F2F3313C
S315080022800140206B522940F0EC8001466FF35F2134
S31508002290BF2904BF00F47E41B1F5007F40F0E1801C
S315080022A000F4FE01B1F5803F04BF00F0FE40B0F136
S315080022B0807F40F0D680606B4FF6F871084212D0E6
S315080022C0E06A20F00100E062DFF8B40D01690269F6
S315080022D08A42FCD0606B4FF6F87188436063E06A07
S315080022E040F00100E062424B186810F00C0F0AD16A
S315080022F01868042161F303001860186800F00F00DD
S31508002300042840F00281A069400604D4A06904218B
S3150800231061F30610A061E069400604D4E06904216F
S3150800232061F30610E061E069400504D4E069042120
S3150800233061F30A20E061206A400604D4206A042179
S3150800234061F306102062A069000704D4A069082179
S3150800235061F30300A061A06920F47060A0612068A1
S31508002360800140F1D28020690321DFF814BD61F3B2
S315080023700200206141F28831DBF81000226902F080
S315080023803802182A71D0DBF81020121A8A42F5D9B9
S31508002390BBE0206840F480302060DFF8E40C016977
S315080023A0226892033FF563AF0269521A642AF7D985
S315080023B057E0206820F080702060DFF8C40C0169BF
S315080023C02268920116D50269521A022AF8D948E0FB
S315080023D00CED00E0510A000800000101100000039E
S315080023E00003FA05004402580C4802582C04005809
S315080023F000200052A16A40F2F33291434FF6F87278
S315080024005231A162E4492163E16A21F00101E162E6
S31508002410616B914361630222E16A62F38301E162BF
S31508002420E16A21F00201E162E16A41F48031E16288
S31508002430E16A41F40031E162E16A41F48021E16236
S31508002440E16A41F00101E162216841F08071216091
S315080024500169226892013FF546AF0269521A022ABB
S31508002460F7D9EFF3108072B6FEE7A06900F00F0007
S31508002470092804D3A069082161F30300A06118683C
S3150800248000F00F00052809D31868042161F303003A
S315080024901860186800F00F00042836D1A06900F00B
S315080024A07000412804D3A069042161F30610A061D5
S315080024B0E06900F07000412804D3E069042161F363
S315080024C00610E061E06900F4E060B0F5806F04D9B9
S315080024D0E069042161F30A20E061206A00F07000D7
S315080024E0412804D3206A042161F306102062FEF70E
S315080024F09DFFFFF737FA9BF804103060102000297B
S3150800250018BF0F20FEF778FA18B1EFF3108072B6ED
S31508002510FEE700260E96A1494FF001080DF128099D
S31508002520D4F8E00040F00400FFF77CFA00F004005D
S31508002530FFF7D8F9FFF73FFAFFF7D4F9FFF732FAB2
S31508002540FFF7D0F9FFF725FAFFF7CCF9FFF718FAE6
S31508002550FFF7C8F940F01000FFF764FA00F0100022
S31508002560FFF7C0F940F00800FFF75CFA00F0080032
S31508002570FFF7BDF93B903B98402008600321CDE961
S315080025800A080D91CDF830808548494600F5043093
S315080025900890FEF76DF9DFF8F0AA0C204FF4E13148
S315080025A0804ACAE90021CAE904600AF11800142120
S315080025B0CAE90266FEF71AF9DAF8880010B1794B0B
S315080025C0184631E009F10800B8218AF88460FEF758
S315080025D00DF94846CDE90A86FEF710FB002840F0BB
S315080025E04485D4F8F00040F01000C4F8F000D4F8A0
S315080025F0F00000F01000FFF77AF9099007203F90E5
S315080026000020CDE93D0002203C904FF4C0603B908D
S3150800261009983BA9624800F5FA30FEF729F9DAF875
S315080026200000DAF828605F4B2421CAF88810016890
S31508002630002E21F00101016051D0310706D5DAF8E4
S315080026403810426822F4004211434160F10706D06F
S31508002650DAF82C10426822F4003211434160B107BF
S3150800266006D5DAF83010426822F480321143416008
S31508002670710706D5DAF83410426822F4802211432D
S315080026804160F10606D5DAF83C10826822F48052D9
S3150800269011438160B10606D5DAF84010826822F443
S315080026A0005211438160710610D5DAF84410426869
S315080026B022F480120A434260B1F5801F06D1DAF887
S315080026C04810426822F4C00211434160310606D51B
S315080026D0DAF84C10426822F400221143416001687E
S315080026E0314A9E46DAE904631140DAE9022C32439C
S315080026F02B4E1A431143DAF81C2011430160416836
S31508002700B0422A4E21F4405141EA0C014160DAF800
S315080027101810DAF8203018BF194383683340194374
S315080027208160DAF82410C36A23F00F030B43C362EF
S315080027301F4B98421CBF1F4B98420BD01E4B98420A
S315080027401CBF1E4B984205D01D4B98421CBF1D4B03
S31508002750984209D1636D03F00703062B36D2DFF8DA
S31508002760346933441B7832E00D4B98420CD0164B33
S31508002770984218BF704529D1636DC3F3C203062B6F
S3150800278024D2DFF81469ECE7A36D03F00703062BE0
S315080027901CD20FF6F806E4E7BF020101181C02581E
S315080027A0000C005800100140F369FFCFFFF4FF1139
S315080027B00044004000480040004C004000500040E3
S315080027C000780040007C00400014014080236F4ED2
S315080027D0B04212D0B2F5004F26D1082B34D8DFE824
S315080027E013F009008500460446048800460446049A
S315080027F046048D00FEF702FE84E0402B3AD0042BF7
S315080028003BD0082B3ED0102B46D0202B4DD0022B88
S3150800281040F02D84FEF7D8FD216AC1F30211695CE8
S3150800282001F01F01C84031E0082B17D8DFE813F084
S3150800283009006F001F041F0472001F041F041F04F1
S315080028407700FEF7DBFD6EE0102B71D0202B78D0D9
S31508002850402B40F00C844FF4004073E0102B00F03E
S315080028608C80202B00F09A80402B40F000844FF497
S31508002870004094E04FF4004018E00AA8FEF736F945
S315080028800B9803E03BA8FEF775F93C98002800F082
S315080028909C80DAF8241009E0206880063C4805D5B3
S315080028A02268C2F3C102D04000E03A48DFF8EC27BC
S315080028B032F81110DAF80420B0FBF1F002EB42010D
S315080028C08842C0F0D483B0EB023F00F2D083010EF9
S315080028D0000210EB520041F100010023FDF70EFF44
S315080028E0A0F540712C4A91426CD3C0E3FEF790FDE7
S315080028F008E00AA8FEF7FAF80B9803E03BA8FEF7EB
S3150800290039F93C98002860D0DAF824101AE0FEF766
S315080029107FFD08E00AA8FEF7E9F80B9803E03BA854
S31508002920FEF728F93C9800284FD0DAF8241036E04C
S3150800293020688006164805D52268C2F3C102D04031
S3150800294000E01448DFF8542732F81110B0FBF1F014
S31508002950DAF804104A0802EB40004FF6EF72B0FBB3
S31508002960F1F0A0F11001914200F281834FF6F07167
S315080029700140C0F34200084424E020688006044869
S315080029800DD52268C2F3C102D04008E0000C0058F9
S315080029900090D00300093D0000FD0F008A48DFF8CB
S315080029A0FC2632F811104FF6EF72B0FBF1F0DAF8A8
S315080029B0041000EB5100B0FBF1F0A0F110019142B8
S315080029C000F25583DAF80010C8604FF00110CAF813
S315080029D068000021CAE91D11DAF80000426822F4ED
S315080029E090424260826822F02A028260026842F0BF
S315080029F001020260CAF89010DBF810500168090756
S31508002A000CD5DFF884964FF400112A464846FFF79E
S31508002A10BBFA002840F0AA80D9F8000001684907E7
S31508002A200CD5DFF864964FF480012A464846FFF72E
S31508002A30ABFA002840F0A880D9F800002025CAF88B
S31508002A408850CAF88C504FF00009CAF86C90CAF83A
S31508002A5070904FF02408FEF757FF21F0604181601F
S31508002A60FFF76EFADAF800000660CAF88850FEF733
S31508002A704BFF21F060618160FFF762FADAF8000027
S31508002A8008230660CAF88850CAF888804FF00208FA
S31508002A900168026822F00102026021F0005101601B
S31508002AA04FF40050CAF864908AF88490CAF888509F
S31508002AB0CBF84800454DCDE90F88CDE90A834FF498
S31508002AC0C070CBE90E0905F50555CBE908590DF196
S31508002AD028094FF480514FF40062CBE910210420F5
S31508002AE00E90012540211022CBE90A53CBE90C218F
S31508002AF00620CDE90C004846FEF714FDFFF7A6F8B8
S31508002B00DFF89C65324818213060301DFDF76EFEEF
S31508002B1006F11C0C5021002286F83620B28640F2B7
S31508002B201E2A4FF487604FF4027E4FF45C75282303
S31508002B30C6E90B0AACE82A4096F8A100002849D055
S31508002B404FF05C7007904FF4A0054FF087624FF086
S31508002B50000C00244FF000084FF0000900200690F2
S31508002B600890CDE9040003901948F5E0D9F800006B
S31508002B7050E8001F484621F0800150F8882B42E8AB
S31508002B800013002BF2D118E0D9F8000050E8000F26
S31508002B90D9F8001020F4907041E80002002AF3D119
S31508002BA0D9F8000050E8021F484621F0010150F804
S31508002BB08C2B42E80213002BF2D100218AF88410EC
S31508002BC02021016051E200BF00093D0000200052AB
S31508002BD00010005086F8A0203BA814210025FDF718
S31508002BE005FE09F10800B821FDF700FE4FF0005078
S31508002BF00A900421CDE916810B954FF400601990CF
S31508002C00322105201890CDE914014846FDF7F6FF54
S31508002C10002840F02A82D4F8E4004FF000094FF06B
S31508002C20020ADFF88484032540F00800C4F8E400AB
S31508002C30D4F8E40000F00800FEF77CFEFEF7BBFEC1
S31508002C40FEF778FEFEF7AEFEFEF774FEFEF7A1FE6F
S31508002C50FEF770FEFEF794FEFEF76CFE40F00100EC
S31508002C60C4F8E000D4F8E00000F0010009900998E3
S31508002C70CDF8F490CDF8F0A00E203F9003203E90BA
S31508002C8040F2F7603B903BACE248214600F57A708B
S31508002C90C0470E20CDE93E50DF4D2146CDE93CA97F
S31508002CA04FF480603B9005F50230C0470E203F90F8
S31508002CB0214603253E95CDE93CA94FF47E403B903D
S31508002CC00898C0470E20CDE93E5021460325CDE998
S31508002CD03CA9C0203B90EB4800F50330C0470D20C7
S31508002CE0CDE93E502146CDE93CA94FF480703B9092
S31508002CF0E44800F5FA30C04758200021FDF7D0FE19
S31508002D00EA484FF08071016096F836C096F83400AC
S31508002D10316996F835500391D6F830A0D6E9028481
S31508002D200690D6E908300790716901914FEA0C427E
S31508002D30B1690892D6E90AE0029004912A02079D31
S31508002D40F1690592D6E900092D04029A07950D0442
S31508002D50019912044FEA014C022186F8A1108169F3
S31508002D6021F07041816148EA09012143039C21430E
S31508002D70846921438161049941EA0C01816045EA2D
S31508002D800301C160079941EA0E01016142EA0A019D
S31508002D904161C16A01F07F41C1620899059A1143F0
S31508002DA0069A1143C26A1143C162416B41F006019A
S31508002DB04163816941F0010181610021C6F8A410CF
S31508002DC0012186F8A11096F8A010012900F04D817E
S31508002DD04FF44875022386F8A1304FF0000E4FF4E1
S31508002DE0F071C6E91851C6E90EE505244FF0404CC6
S31508002DF0C6E9164C4FF48062C6F868E0C6E910E1E9
S31508002E00726506F14805FF24A5E81840C268D0F89F
S31508002E10885005F47045C0F88850A54D05F1006541
S31508002E202A40C568C5F30B452A44A24D2A44C0F872
S31508002E308820C268D0F88C5005F47045C0F88C50CC
S31508002E40C5686FF3DF2562F31A459B4A2A44C0F822
S31508002E508C20D0F8942022F00702C0F89420C0F8FD
S31508002E609430C0F89CE040F20773D0F8982022F01E
S31508002E70FF02C0F89820C0F89840D0F8A0209A43DE
S31508002E80C0F8A02040F2FF7340F20542C0F8A02027
S31508002E90C0F8ACC0D0F8B02002F0E022C0F8B020EC
S31508002EA0864AC0F8B020D0F8B4209A43C0F8B420B7
S31508002EB0C0F8B410D0F8841041F00101C0F88410AD
S31508002EC001214162704886F8A01086F8A110CBF857
S31508002ED00C0086F8A0E07AA0FDF73CFB7E487F4907
S31508002EE04FF4784A21F800A07D4821F800A07D48D3
S31508002EF021F800A07C4821F800A07C4821F800A011
S31508002F007B4821F800A07B4821F800A07A4821F8E0
S31508002F1000A07A4821F800A0794821F800A079484D
S31508002F2021F800A078A04FF47841FDF76BFA43F634
S31508002F30E0764FF6E07B4FF01F094FF4FC6800205F
S31508002F40B867BFF34F8F7B6FDA08C3F34E31C3F30D
S31508002F50C903920748015D1C00EA0603D4182B46EC
S31508002F60C7F8684204F14044013BF9D120384B1EAA
S31508002F7000291946F0D1BFF34F8F4A49BFF36F8F27
S31508002F80886C4007FCD56548544918B121F802AB4E
S31508002F900138FAE7FEF724FD00EA06041D46144444
S31508002FA0C7F8684204F14044013DF9D120384C1E67
S31508002FB000292146F0D1BFF34F8F3A49BFF36F8FEF
S31508002FC0886C4007FCD55548444918B121F8028B4E
S31508002FD00138FAE7FEF704FD00EA06041D46144424
S31508002FE0C7F8684204F14044013DF9D120384C1E27
S31508002FF000292146F0D1BFF34F8F2A49BFF36F8FBF
S31508003000886C4007FCD54548344958B121F8029BDD
S315080030100138FAE7181C0258000C005886310008D7
S3150800302000000024FEF7DCFC00EA06041D461444F2
S31508003030C7F8684204F14044013DF9D120384C1ED6
S3150800304000292146F0D1BFF34F8F1649BFF36F8F82
S31508003050886C4007FCD53148204918B121F802BBD5
S315080030600138FAE7FDF7FCFB69E7FDF7E8FB002006
S31508003070CAE91D004FF00110CAF86800FDF7DFFB2A
S3150800308068000024000C0058B80100240204081047
S315080030902040000068310008623100086E310008DF
S315080030A010010024001000507108000808E100E033
S315080030B00000FF07010020030100E0014706400663
S315080030C0534452414D20E5889DE5A78BE58C96E94A
S315080030D0809AE8BF87210D0090E30400000000C035
S315080030E0FCA4040068660400D427040040E9030031
S315080030F0ACAA0300842D0300F0EE02005CB00200C7
S31508003100C8710200186C0300706978636F6C6F727F
S31508003110203D202578200D0A0000000000B80B008D
S31508003120F1EE100A4FF6FF71C0F2C03120EA010035
S3150800313040F04070E1EE100A7047303132333435D2
S3150800314036373839414243444546403058003031D5
S3150800315032333435363738396162636465664030F0
S3150800316078000104081020400004081020400100DF
S3150800317002000400060008000A000C0010002000E7
S315080031804000800000010000000001020304010263
S3150800319003040607080901010103070100000804E2
S315080031A00204080101010000D831000800000024CB
S315080031B00800000038030008E0310008000000C0DD
S315080031C000B80B00FC020008E031000808000024E3
S315080031D048080000580300080090D00300000000CB
S315080031E001FF01FF01FF01FF01FF01FF01FF01FFD1
S315080031F001FF01FF01FF01FF01FF01FF01FF01FFC1
S3150800320001FF01FF01FF01FF01FF01FF01FF01FFB0
S3150800321001FF01FF01FF01FF01FF01FF01FF01FFA0
S3150800497001FF01FF01FF01FF01FF01FF01FF019F89
S7050800029957
